:020000040800F2
:100000000080002035050008690400087504000818
:100010007B04000881040008870400080000000039
:100020000000000000000000000000008D04000837
:100030009904000800000000A5040008B1040008AD
:100040007D0500087D0500087D0500087D05000888
:100050007D0500087D0500087D0500087D05000878
:100060007D0500087D0500087D0500087D05000868
:100070007D0500087D0500087D0500087D05000858
:100080007D0500087D0500087D0500087D05000848
:100090007D0500087D0500087D0500087D05000838
:1000A000000000007D0500087D0500087D050008B2
:1000B0007D0500087D0500087D0500087D05000818
:1000C0007D0500087D0500087D0500087D05000808
:1000D0007D0500087D0500087D0500087D050008F8
:1000E000BD0400087D0500087D0500087D050008A9
:1000F0007D05000800000000000000000000000076
:1001000000000000000000000000000000000000EF
:1001100000000000000000000000000000000000DF
:1001200000000000000000000000000000000000CF
:0C01300000000000000000005FF808F173
:10013C0010B5054C237833B9044B13B10448AFF315
:10014C0000800123237010BD0C0000200000000073
:10015C009817000808B5034B1BB103490348AFF3CC
:10016C00008008BD00000000100000209817000857
:10017C0080B500AF00F0FDF900F036F800F07EF825
:10018C0000F012F901220221154800F02BFD41F27A
:10019C00883000F05DFA00220221114800F022FDA7
:1001AC0000F0F6F80F4B93F90030002BFAD00D4B02
:1001BC0000221A7001220221094800F013FD41F2BD
:1001CC00883000F045FA00220221054800F00AFDB3
:1001DC004FF47A7000F03CFA00F0E6F8E2E700BF6A
:1001EC00000802402800002080B592B000AF07F153
:1001FC00140334220021184601F0C0FA3B460022B9
:10020C001A605A609A60DA601A611B4B1B6823F4FF
:10021C00C053194A43F40063136001237B6101232B
:10022C00BB610023BB6307F11403184600F030FDDB
:10023C000346002B01D000F0DDF80F233B600223B6
:10024C007B600023BB600023FB6000233B613B46CB
:10025C000021184601F04CF80346002B01D000F0A9
:10026C00C9F800224FF08061002001F075F900BF41
:10027C004837BD4680BD00BF0070004080B588B0D7
:10028C0000AF07F10C0300221A605A609A60DA6022
:10029C001A61304BDB692F4A43F00403D3612D4BB9
:1002AC00DB6903F00403BB60BB682A4BDB69294A9A
:1002BC0043F02003D361274BDB6903F020037B6001
:1002CC007B68244BDB69234A43F00103D361214B48
:1002DC00DB6903F001033B603B68002203211E48ED
:1002EC0000F080FC4FF40053FB601C4B3B6100237F
:1002FC007B6107F10C031946174800F0F5FA03234C
:10030C00FB6001233B6100237B610023BB6107F190
:10031C000C031946104800F0E7FA4FF48073FB60A9
:10032C0002233B6100237B610323BB610023FB6140
:10033C0007F10C0319460A4800F0D6FA00220021F6
:10034C00282000F09AFA282000F0B3FA00BF2037DA
:10035C00BD4680BD0038024000080240000011106C
:10036C000000024080B483B000AF0346FB80FB88E2
:10037C00B3F5005F03D1054B01221A7000E000BFFA
:10038C0000BF0C37BD4680BC704700BF2800002062
:10039C0080B500AF00F07EF90121002000F052FC86
:1003AC0000F086F900BF80BD80B582B000AF00239D
:1003BC00FB7115E0012202210D4800F013FC4FF4F3
:1003CC00FA7000F045F900220221094800F00AFCFD
:1003DC004FF4FA7000F03CF9FB790133DBB2FB719E
:1003EC0097F90730052BE5DD00BF0837BD4680BD0A
:1003FC000008024080B400AF00BFBD4680BC70470F
:10040C0080B485B000AF144B5B6A134A43F00043D1
:10041C005362114B5B6A03F00043FB60FB680E4BAD
:10042C001B6A0D4A43F0010313620B4B1B6A03F06A
:10043C000103BB60BB68084B5B6A074A43F08053FF
:10044C005362054B5B6A03F080537B607B6800BF93
:10045C001437BD4680BC70470038024080B400AFF2
:10046C0000BFBD4680BC704780B400AFFEE780B4CF
:10047C0000AFFEE780B400AFFEE780B400AFFEE74C
:10048C0080B400AF00BFBD4680BC704780B400AFE5
:10049C0000BFBD4680BC704780B400AF00BFBD46F6
:1004AC0080BC704780B500AF00F0B6F800BF80BDCF
:1004BC0080B500AF4FF4005000F0ACFB00BF80BD26
:1004CC0080B400AF154B1B68144A43F4807313605F
:1004DC00124B9A681149124B13408B600F4B1B68DF
:1004EC000E4A23F0885323F0011313600B4B1B6847
:1004FC000A4A23F480231360084B9B68074A23F4B1
:10050C007D039360054B0022DA60064B4FF00062CE
:10051C009A6000BFBD4680BC704700BF00380240E7
:10052C000CC0FF8800ED00E0002103E00B4B5B5892
:10053C00435004310A480B4B42189A42F6D30A4AEC
:10054C0002E0002342F8043B084B9A42F9D3FFF730
:10055C00B7FF01F0EFF8FFF70BFE7047D417000858
:10056C00000000200C0000200C00002030000020B7
:10057C00FEE780B582B000AF0023FB71032000F0D2
:10058C0071F9002000F00EF80346002B02D0012375
:10059C00FB7101E0FFF734FFFB7918460837BD46C5
:1005AC0080BD000080B584B000AF78600023FB7381
:1005BC00164B1B68002B22D0154B1A68134B1B686B
:1005CC004FF47A71B1FBF3F3B2FBF3F3184600F07E
:1005DC007EF90346002B0FD17B680F2B09D8002224
:1005EC0079684FF0FF3000F048F90A4A7B681360D5
:1005FC0007E00123FB7304E00123FB7301E00123FB
:10060C00FB73FB7B18461037BD4680BD08000020ED
:10061C00000000200400002080B400AF054B1A68D5
:10062C00054B1B681344034A136000BFBD4680BCD6
:10063C00704700BF2C0000200800002080B400AFE1
:10064C00024B1B681846BD4680BC70472C0000202E
:10065C0080B584B000AF7860FFF7F0FFB8607B68BE
:10066C00FB60FB68B3F1FF3F04D0094B1B68FA68D1
:10067C001344FB6000BFFFF7E1FF0246BB68D31ACF
:10068C00FA689A42F7D800BF1037BD4680BD00BF4C
:10069C000800002080B400AF044B1B68034A23F011
:1006AC000203136000BFBD4680BC704710E000E041
:1006BC0080B400AF044B1B68034A43F00203136081
:1006CC0000BFBD4680BC704710E000E080B485B030
:1006DC0000AF78607B6803F00703FB600C4BDB68B2
:1006EC00BB60BA684FF6FF031340BB60FB681A028D
:1006FC00BB68134343F0BF6343F40033BB60044A4D
:10070C00BB68D36000BF1437BD4680BC704700BFC8
:10071C0000ED00E080B400AF044BDB681B0A03F073
:10072C0007031846BD4680BC704700BF00ED00E0D3
:10073C0080B483B000AF0346FB7197F90730002BF0
:10074C000BDBFB7903F01F02064997F907305B09B5
:10075C00012000FA02F241F8232000BF0C37BD46FD
:10076C0080BC704700E100E080B483B000AF03466A
:10077C003960FB7197F90730002B0ADB3B68DAB262
:10078C000C4997F907301201D2B20B4483F80023BD
:10079C000AE03B68DAB20849FB7903F00F03043B2B
:1007AC001201D2B20B441A7600BF0C37BD4680BC86
:1007BC00704700BF00E100E000ED00E080B489B0BC
:1007CC0000AFF860B9607A60FB6803F00703FB6167
:1007DC00FB69C3F10703042B28BF0423BB61FB692E
:1007EC000433062B02D9FB69033B00E000237B6139
:1007FC004FF0FF32BB6902FA03F3DA43BB681A40CD
:10080C007B699A404FF0FF317B6901FA03F3D943BE
:10081C007B680B40134318462437BD4680BC704799
:10082C0080B582B000AF78607B68013BB3F1807F0C
:10083C0001D301230FE00A4A7B68013B53600F216F
:10084C004FF0FF30FFF790FF054B00229A60044BEE
:10085C0007221A60002318460837BD4680BD00BF2A
:10086C0010E000E080B582B000AF78607868FFF7E8
:10087C002DFF00BF0837BD4680BD80B586B000AFE8
:10088C000346B9607A60FB7300237B61FFF742FF7C
:10089C0078617A68B9687869FFF790FF024697F932
:1008AC000F3011461846FFF75FFF00BF1837BD46E3
:1008BC0080BD80B582B000AF0346FB7197F907305D
:1008CC001846FFF735FF00BF0837BD4680BD80B521
:1008DC0082B000AF78607868FFF7A2FF0346184635
:1008EC000837BD4680BD000080B487B000AF78608B
:1008FC00396000237B610023FB6000233B6154E1E2
:10090C003B681A6801217B6901FA03F31340FB6011
:10091C00FB68002B00F046813B685B68022B03D020
:10092C003B685B68122B23D17B69DA087B68083241
:10093C0053F822303B617B6903F007039B000F22C5
:10094C0002FA03F3DB433A6913403B613B681A69D3
:10095C007B6903F007039B0002FA03F33A69134324
:10096C003B617B69DA087B680832396943F82210ED
:10097C007B681B683B617B695B00032202FA03F313
:10098C00DB433A6913403B613B685B6803F003024D
:10099C007B695B0002FA03F33A6913433B617B68A2
:1009AC003A691A603B685B68012B0BD03B685B684B
:1009BC00022B07D03B685B68112B03D03B685B684C
:1009CC00122B30D17B689B683B617B695B000322F7
:1009DC0002FA03F3DB433A6913403B613B68DA6884
:1009EC007B695B0002FA03F33A6913433B617B6852
:1009FC003A699A607B685B683B6101227B6902FA09
:100A0C0003F3DB433A6913403B613B685B681B09AA
:100A1C0003F001027B6902FA03F33A6913433B6169
:100A2C007B683A695A607B68DB683B617B695B0079
:100A3C00032202FA03F3DB433A6913403B613B6840
:100A4C009A687B695B0002FA03F33A6913433B61D2
:100A5C007B683A69DA603B685B6803F08053002B73
:100A6C0000F0A080574B1B6A564A43F001031362F7
:100A7C00544B1B6A03F00103BB60BB68524A7B6991
:100A8C009B08023352F823303B617B6903F003036C
:100A9C009B000F2202FA03F3DB433A6913403B61DC
:100AAC007B684A4A934219D07B68494A934213D0D7
:100ABC007B68484A93420DD07B68474A934207D0E3
:100ACC007B68464A934201D1042308E0052306E0E3
:100ADC00032304E0022302E0012300E000237A69EF
:100AEC0002F00302920093403A6913433B6136498A
:100AFC007B699B0802333A6941F82320384B1B6809
:100B0C003B61FB68DB433A6913403B613B685B68C4
:100B1C0003F48033002B03D03A69FB6813433B6129
:100B2C002F4A3B6913602E4B5B683B61FB68DB43D0
:100B3C003A6913403B613B685B6803F40033002B5C
:100B4C0003D03A69FB6813433B61254A3B69536008
:100B5C00234B9B683B61FB68DB433A6913403B6169
:100B6C003B685B6803F48013002B03D03A69FB6885
:100B7C0013433B611A4A3B699360194BDB683B6139
:100B8C00FB68DB433A6913403B613B685B6803F4E9
:100B9C000013002B03D03A69FB6813433B61104AE6
:100BAC003B69D3607B6901337B613B681A687B6965
:100BBC0022FA03F3002B7FF4A3AE00BF1C37BD4613
:100BCC0080BC704700380240000001400000024029
:100BDC000004024000080240000C024000100240D9
:100BEC000004014080B483B000AF78600B467B807A
:100BFC0013467B707B78002B03D07A887B689A61D4
:100C0C0003E07B881A047B689A6100BF0C37BD46F1
:100C1C0080BC704780B582B000AF0346FB80084BA8
:100C2C005A69FB881340002B06D0054AFB88536198
:100C3C00FB881846FFF796FB00BF0837BD4680BD02
:100C4C000004014080B483B000AF78600B46FB70A9
:100C5C000D4B1B6823F003020B497B6813430B609D
:100C6C000A4B1B69094A23F004031361FB78012B1F
:100C7C0001D130BF02E040BF20BF20BF00BF0C3706
:100C8C00BD4680BC704700BF0070004000ED00E026
:100C9C0080B588B000AF78607B68002B01D1012350
:100CAC001DE3944B9B6803F00C03BB61914B9B6859
:100CBC0003F480337B617B681B6803F00103002B1A
:100CCC007BD0BB69082B06D0BB690C2B0FD17B6981
:100CDC00B3F5803F0BD1874B1B6803F40033002B1B
:100CEC006AD07B685B68002B66D10123F7E27B68D6
:100CFC005B68012B06D17F4B1B687E4A43F4803323
:100D0C0013602DE07B685B68002B0CD1794B1B6862
:100D1C00784A23F480331360764B1B68754A23F4AE
:100D2C00802313601CE07B685B68052B0CD1714B36
:100D3C001B68704A43F4802313606E4B1B686D4A2A
:100D4C0043F4803313600BE06A4B1B68694A23F44D
:100D5C0080331360674B1B68664A23F4802313604F
:100D6C007B685B68002B13D0FFF768FC386108E0E8
:100D7C00FFF764FC02463B69D31A642B01D90323A9
:100D8C00ADE25C4B1B6803F40033002BF0D014E095
:100D9C00FFF754FC386108E0FFF750FC02463B6952
:100DAC00D31A642B01D9032399E2524B1B6803F429
:100DBC000033002BF0D100E000BF7B681B6803F010
:100DCC000203002B5AD0BB69042B05D0BB690C2B3A
:100DDC0019D17B69002B16D1464B1B6803F002031B
:100DEC00002B05D07B68DB68012B01D0012376E258
:100DFC00404B5B6823F4F8527B681B691B023D492E
:100E0C0013434B603AE07B68DB68002B20D03A4BF5
:100E1C0001221A60FFF712FC386108E0FFF70EFCA4
:100E2C0002463B69D31A022B01D9032357E2314BFB
:100E3C001B6803F00203002BF0D02E4B5B6823F4ED
:100E4C00F8527B681B691B022A4913434B6015E05F
:100E5C00294B00221A60FFF7F1FB386108E0FFF71D
:100E6C00EDFB02463B69D31A022B01D9032336E270
:100E7C00204B1B6803F00203002BF0D17B681B682E
:100E8C0003F01003002B00F0B880BB69002B70D16D
:100E9C00184B1B6803F40073002B05D07B689B690F
:100EAC00002B01D101231AE27B681A6A114B5B6893
:100EBC0003F460439A4221D97B681B6A184600F000
:100ECC00D9FB0346002B01D0012308E2094B5B68D8
:100EDC0023F460427B681B6A064913434B60054B45
:100EEC005B6823F07F427B68DB691B060149134377
:100EFC004B6020E00038024000004742A44B5B6886
:100F0C0023F460427B681B6AA14913434B60A04BDE
:100F1C005B6823F07F427B68DB691B069C491343AB
:100F2C004B607B681B6A184600F0A4FB0346002B41
:100F3C0001D00123D3E17B681B6A5B0B01334FF4B7
:100F4C00004202FA03F3924A9268120902F00F026D
:100F5C0090498A5CD340904A1360904B1B681846AA
:100F6C00FFF720FB0346FB73FB7B002B45D0FB7B81
:100F7C00B5E17B689B69002B29D0894B01221A6053
:100F8C00FFF75CFB386108E0FFF758FB02463B6952
:100F9C00D31A022B01D90323A1E17D4B1B6803F467
:100FAC000073002BF0D07A4B5B6823F460427B68B3
:100FBC001B6A774913434B60754B5B6823F07F4288
:100FCC007B68DB691B06724913434B6015E0744B5D
:100FDC0000221A60FFF732FB386108E0FFF72EFBA6
:100FEC0002463B69D31A022B01D9032377E1684BE4
:100FFC001B6803F40073002BF0D17B681B6803F0B3
:10100C000803002B30D07B685B69002B16D0654B36
:10101C0001221A60FFF712FB386108E0FFF70EFBA4
:10102C0002463B69D31A022B01D9032357E1584BD3
:10103C005B6B03F00203002BF0D015E0594B002240
:10104C001A60FFF7FBFA386108E0FFF7F7FA02467F
:10105C003B69D31A022B01D9032340E14C4B5B6B48
:10106C0003F00203002BF0D17B681B6803F0040330
:10107C00002B00F0B5800023FB77454B5B6A03F037
:10108C008053002B0DD1424B5B6A414A43F0805395
:10109C0053623F4B5B6A03F08053BB60BB68012318
:1010AC00FB77414B1B6803F48073002B18D13E4B2C
:1010BC001B683D4A43F480731360FFF7BFFA386135
:1010CC0008E0FFF7BBFA02463B69D31A642B01D93F
:1010DC00032304E1344B1B6803F48073002BF0D022
:1010EC007B689B68012B06D1294B5B6B284A43F428
:1010FC00807353632DE07B689B68002B0CD1244BD1
:10110C005B6B234A23F480735363214B5B6B204A44
:10111C0023F4806353631CE07B689B68052B0CD124
:10112C001B4B5B6B1A4A43F480635363184B5B6B2A
:10113C00174A43F4807353630BE0154B5B6B144AF3
:10114C0023F480735363124B5B6B114A23F480635B
:10115C0053637B689B68002B15D0FFF76FFA3861DF
:10116C000AE0FFF76BFA02463B69D31A41F2883268
:10117C00934201D90323B2E0054B5B6B03F400737C
:10118C00002BEED023E0FFF759FA386119E000BFCD
:10119C0000380240BC1700080000002004000020AA
:1011AC00200047428006474200700040FFF746FA95
:1011BC0002463B69D31A41F28832934201D9032388
:1011CC008DE0494B5B6B03F40073002BEED1FB7F7E
:1011DC00012B05D1444B5B6A434A23F08053536285
:1011EC007B685B6A002B79D0BB690C2B56D07B6873
:1011FC005B6A022B3BD13D4B00221A60FFF71EFAB3
:10120C00386108E0FFF71AFA02463B69D31A022B41
:10121C0001D9032363E0344B1B6803F00073002BEC
:10122C00F0D1314B9B6823F47D027B68996A7B6813
:10123C00DB6A19437B681B6B0B432B4913438B6095
:10124C002A4B01221A60FFF7F9F9386108E0FFF721
:10125C00F5F902463B69D31A022B01D903233EE070
:10126C00214B1B6803F00073002BF0D036E01F4BB2
:10127C0000221A60FFF7E2F9386108E0FFF7DEF9A7
:10128C0002463B69D31A022B01D9032327E0164BE4
:10129C001B6803F00073002BF0D11FE07B685B6AC6
:1012AC00012B01D101231AE00F4B9B687B617B69F9
:1012BC0003F480327B689B6A9A420DD17B6903F4FC
:1012CC0070127B68DB6A9A4206D17B6903F4400298
:1012DC007B681B6B9A4201D0012300E00023184667
:1012EC002037BD4680BD00BF003802406000474239
:1012FC0080B584B000AF786039607B68002B01D179
:10130C0001231AE18F4B1B6803F001033A689A42E0
:10131C0019D93B68012B05D18A4B1B68894A43F0CC
:10132C0004031360874B1B6823F0010285493B685B
:10133C0013430B60834B1B6803F001033A689A421A
:10134C0001D00123F9E07B681B6803F00203002B3A
:10135C0008D07D4B9B6823F0F0027B689B687A4930
:10136C0013438B607B681B6803F00103002B00F0B8
:10137C008E807B685B68022B07D1734B1B6803F470
:10138C000033002B21D10123D7E07B685B68032B52
:10139C0007D16D4B1B6803F00073002B15D1012393
:1013AC00CBE07B685B68012B07D1674B1B6803F0B4
:1013BC000203002B09D10123BFE0634B1B6803F42C
:1013CC000073002B01D10123B7E05F4B9B6823F026
:1013DC0003027B685B685C4913438B60FFF72EF953
:1013EC00F8607B685B68022B12D10AE0FFF726F9E4
:1013FC000246FB68D31A41F28832934201D9032387
:10140C009BE0514B9B6803F00C03082BEED13EE0A4
:10141C007B685B68032B12D10AE0FFF70FF90246D9
:10142C00FB68D31A41F28832934201D9032384E03A
:10143C00454B9B6803F00C030C2BEED127E07B682B
:10144C005B68012B1DD10AE0FFF7F8F80246FB6838
:10145C00D31A41F28832934201D903236DE03A4BFF
:10146C009B6803F00C03042BEED110E0FFF7E6F8B9
:10147C000246FB68D31A41F28832934201D9032306
:10148C005BE0314B9B6803F00C03002BEED12D4B32
:10149C001B6803F001033A689A4219D23B68012B8E
:1014AC0005D1284B1B68274A43F004031360254BD6
:1014BC001B6823F0010223493B6813430B60214B4B
:1014CC001B6803F001033A689A4201D0012334E00F
:1014DC007B681B6803F00403002B08D01A4B9B6835
:1014EC0023F4E0627B68DB68174913438B607B68ED
:1014FC001B6803F00803002B09D0134B9B6823F4E3
:10150C0060527B681B69DB000F4913438B6000F052
:10151C0059F801460C4B9B681B0903F00F030B4A4F
:10152C00D35C21FA03F30A4A13600A4B1B68184672
:10153C00FFF738F80346FB72FB7A18461037BD46A6
:10154C0080BD00BF003C024000380240BC170008C0
:10155C00000000200400002080B58AB000AFF860C5
:10156C00B9607A600223BB6102233B620023FB61FA
:10157C004FF480737B6100237B62104BDB690F4A55
:10158C0043F00103D3610D4BDB6903F001033B61B5
:10159C003B6907F1140319460948FFF7A5F9074BF6
:1015AC009B6823F0EE42B9687B680B4303491343F5
:1015BC008B6000BF2837BD4680BD00BF003802409D
:1015CC000000024080B487B000AF264B9B68FB60E4
:1015DC00FB6803F00C03082B06D00C2B07D0042B54
:1015EC002CD1214B3B6137E0204B3B6134E0FB6855
:1015FC009B0C03F00F031E4AD35CBB60FB689B0D76
:10160C0003F0030301337B60164B9B6803F48033B8
:10161C00002B08D0BB68154A02FB03F27B68B2FBB7
:10162C00F3F37B6107E0BB680F4A02FB03F27B68B4
:10163C00B2FBF3F37B617B693B610DE0094B5B68AB
:10164C005B0B03F007033B603B6801334FF4004234
:10165C0002FA03F33B6100BF3B6918461C37BD46D9
:10166C0080BC7047003802400024F40000127A005D
:10167C00B017000880B487B000AF786000233B61DE
:10168C00294B9B6803F0F003002B2CD1264B5B6A93
:10169C0003F08053002B05D0244B1B6803F4C0537C
:1016AC007B6116E0204B5B6A1F4A43F08053536208
:1016BC001D4B5B6A03F08053FB60FB681B4B1B6884
:1016CC0003F4C0537B61184B5B6A174A23F08053B9
:1016DC0053627B69B3F5C05F05D17B68B3F5404FAE
:1016EC0001D101233B613B69012B05D1104B1B68D8
:1016FC000F4A43F0040313600D4B1B6823F00102E7
:10170C000B493B6913430B60094B1B6803F0010346
:10171C003A699A4201D0012300E0002318461C3795
:10172C00BD4680BC704700BF0038024000700040CE
:10173C00003C024070B500250C4E0D4CA41BA410AF
:10174C00A54209D100F022F800250A4E0A4CA41B30
:10175C00A410A54205D170BD56F825309847013527
:10176C00EEE756F8253098470135F2E7CC1700081C
:10177C00CC170008CC170008D01700080346024409
:10178C00934200D1704703F8011BF9E7F8B500BF8D
:10179C00F8BC08BC9E467047F8B500BFF8BC08BC46
:0417AC009E4670479E
:1017B000030406080C101820300000000000000090
:0C17C000000000000102030406070809F5
:0417CC0061010008AF
:0417D0003D010008CF
:0C17D40068FF1F00100000000100000072
:0400000508000535B5
:00000001FF
